:020000040800F2
:10000000205701209D010008955900088D4B0008DC
:100010001D58000885080008B1860008000000008F
:10002000000000000000000000000000415B00082C
:10003000B90D000800000000E1590008AD5D00089E
:10004000B7010008B7010008B7010008B7010008B0
:10005000B7010008B7010008B7010008B7010008A0
:10006000B7010008B7010008B7010008B701000890
:10007000B7010008B7010008B7010008B701000880
:10008000B7010008AD0D0008B7010008B70100086E
:10009000B7010008B7010008B7010008B701000860
:1000A000B7010008B7010008B7010008B701000850
:1000B000B7010008B7010008B7010008B701000840
:1000C000B7010008B7010008B7010008B701000830
:1000D000B7010008E5610008F1610008FD61000852
:1000E000B7010008B7010008B7010008B701000810
:1000F000B7010008B7010008B7010008B701000800
:10010000B7010008B7010008B7010008B7010008EF
:10011000E55F0008B7010008B7010008A55E000808
:10012000B7010008B7010008B7010008B7010008CF
:10013000B7010008B7010008B7010008B7010008BF
:10014000B7010008B7010008B70100089959000875
:10015000B7010008B7010008B7010008B70100089F
:10016000B7010008B7010008B7010008B70100088F
:10017000B7010008B7010008B7010008000000003F
:10018000B7010008B7010008DFF80CD000F024FB2D
:1001900000480047359D0008205701200648804749
:1001A00006480047FEE7FEE7FEE7FEE7FEE7FEE75C
:1001B000FEE7FEE7FEE7FEE7915E00088901000822
:1001C0002DE9F05F0546002092469B46884606468C
:1001D000814640241BE0284641464746224600F01F
:1001E00011F953465A46C01A914110D31146184688
:1001F000224600F0F8F82D1A67EB01084F46224618
:100200000120002100F0EFF817EB00094E41201EFD
:10021000A4F10104DFDC484631462A464346BDE8E6
:10022000F09F40EA01039B0703D009E008C9121FB1
:1002300008C0042AFAD203E011F8013B00F8013BA0
:10024000521EF9D27047D2B201E000F8012B491ECC
:10025000FBD270470022F6E710B513460A46044663
:100260001946FFF7F0FF204610BD421C10F8011B95
:100270000029FBD1801A70472DE9FE4F81EA030463
:1002800004F0004421F0004100944FF0000B23F0F3
:10029000004350EA01045ED052EA03045BD0C3F38A
:1002A0000A54C1F30A552C44A4F2F3340194A0FB80
:1002B0000254C1F3130141F48011C3F3130343F457
:1002C000801301FB024400FB034E840A970A44EAB0
:1002D000815447EA8357A4FB076802958D0A05FB02
:1002E00007854FEA932C04FB0C542705029D4FEA27
:1002F000065847EA1637B5EB08056EEB070C870E74
:10030000920E47EA811742EA8312A7FB0201B6EB7D
:100310000B0164EB00042B0D43EA0C335E1844EB35
:100320001C50DA465146E7FB0201C5F313044FEABD
:100330000B3343EA14534FEA0432019C43EA0603A9
:10034000A4F10C040294009CCDE900B400F0B0F8D4
:1003500003B0BDE8F08F00200146F9E700F000424D
:1003600030F000400AD0C10D01F56071C0F31600F5
:1003700042EA0151C208400711437047002001467C
:10038000704701F0004330B421F0004150EA01020F
:1003900006D00A0DA2F56072C1F31301002A02DC37
:1003A00030BC00207047440F44EAC104C100E0188B
:1003B00030BC00EBC25000F035B830B50B460146FA
:1003C00000202022012409E021FA02F59D4205D3F4
:1003D00003FA02F5491B04FA02F52844151EA2F19E
:1003E0000102F1DC30BD202A04DB203A00FA02F1E0
:1003F000002070479140C2F1200320FA03F3194313
:1004000090407047202A04DB203A21FA02F00021B4
:10041000704721FA02F3D040C2F120029140084314
:10042000194670470029A8BF7047401C490008BF03
:1004300020F00100704710B4B0FA80FC00FA0CF014
:1004400050EA010404BF10BC704749B1CCF120044C
:1004500021FA04F411FA0CF118BF012121430843D9
:10046000A3EB0C01CB1D4FEA00614FEA102042BF05
:10047000002010BC704700EBC35010440029A4BFFB
:1004800010BC7047401C490008BF20F0010010BCA0
:10049000704710B5141E73F1000408DA401C41F1D6
:1004A000000192185B411A4301D120F0010010BDF8
:1004B0002DE9F04D92469B4611B1B1FA81F202E06E
:1004C000B0FA80F220329046FFF78DFF04460F46C7
:1004D00040EA0A0041EA0B0153465A46084313D04A
:1004E000114653EA010019D0C8F140025046FFF707
:1004F00089FF05460E46504659464246FFF773FFB0
:10050000084305D0012004E020463946BDE8F08DBF
:100510000020054346EAE0762C4337430A986305FA
:10052000E40AA0EB08000022FD0A44EA47540A301E
:1005300002D500200146E9E7010510196941DDE90E
:10054000084500196941BDE8F04DA2E72DE9FE4FCD
:10055000804681EA0300C00F0C46009021F0004164
:1005600023F00045B8EB0200A94105D240462146E0
:1005700090461C460B46024623F00040104347D0ED
:10058000270DC7F30A00C3F30A510290401A0190E5
:1005900040286BDAC3F3130040F4801B00989246A6
:1005A00020B10023D2EB030A63EB0B0B01985946F1
:1005B000C0F140025046FFF716FF06460D46504672
:1005C0005946019A00F020F910EB0800614100241F
:1005D00087EA115284EAE7731A4340D0009A62B363
:1005E000019A012A4FEA075215DC001B61EB020158
:1005F0004FF0004202EA0752CDE90042001C41F5EB
:10060000801132462B46FFF753FF03B0BDE8F08F51
:1006100040462146F9E7001B61EB0201001C41F551
:10062000801300185B412018A2F5001747EB030167
:1006300040EAD570B6196D4111E06D084FEA3606F3
:1006400045EAC0754FEA0752001B61EB0201001C2E
:1006500041F5801149084FEA3000001951413246F6
:100660002B4603B0BDE8F04FFFF713BF00980122FF
:1006700040000023D0EB020263EBE07300982146B8
:100680004FEAE074B8EB000061EB0401E9E783F0A6
:1006900000435BE781F0004158E72DE9F04D81EA26
:1006A000030404F0004B21F0004514464FF0000A0B
:1006B00023F0004150EA050220D054EA01021DD087
:1006C000C5F30A570246C5F31303C1F31300C1F380
:1006D0000A5640F4801543F48013A7EB0608101B5C
:1006E000D64608F2FD3873EB050002D308F1010885
:1006F00001E092185B41B8F1000F03DA00200146D7
:10070000BDE8F08D00204FF48011064684460EE0CF
:10071000171B73EB050705D3121B63EB0503064399
:100720004CEA010C49084FEA300092185B4150EA4C
:100730000107EDD152EA030012D082EA040083EAF5
:100740000501084305D0101BAB4106D2012200234E
:1007500006E000224FF0004302E06FF00102531068
:100760001AEB06004CEB085110EB0A0041EB0B01B1
:10077000BDE8F04DFFF78DBEC1F30A52C1F313017E
:1007800040F2FF3341F480119A4202DA0020014620
:10079000704740F233439A42A2F2334202DC5242A3
:1007A000FFF730BEFFF71FBE30B5041E71F1000425
:1007B00004DB4FF00044404264EB0101141E73F16E
:1007C000000405DB1C464FF00043524263EB040378
:1007D000994208BF904230BD1CB5094800900948B5
:1007E00001900546009C06E0E06840F0010394E8B3
:1007F000070098471034AC42F6D3FFF7C9FC00005D
:1008000034D1000854D10008202A06DBCB17203A47
:1008100041FA02F043EAE07306E041FA02F3D04005
:10082000C2F12002914008431946704770B58C18F8
:1008300010F8015B15F0070301D110F8013B2A11F4
:1008400006D110F8012B03E010F8016B01F8016BE1
:100850005B1EF9D12B0705D40023521E0DD401F8DD
:10086000013BFAE710F8013BCB1A921C03E013F8A6
:10087000015B01F8015B521EF9D5A142D8D30020DB
:1008800070BD0000FEE700000020704700207047A8
:1008900010B54FF69854C2F200044FF22851C2F23C
:1008A00000012046002205F073FE4EF62851C2F2E8
:1008B0000001204605F05EFE002010BD70B54FF629
:1008C00098560546C2F200060C463046294605F009
:1008D00051FE304605F028FE44F6E431C2F2010133
:1008E00091F820004FF0000C002804BF002008649D
:1008F000206858B3002200BF0B6CAE5C0B4413445D
:1009000083F821602668531CB34220D20E6CAB18CA
:1009100058780E44164486F822002668901CB0428F
:1009200015D2086C9E780844104480F8236026682D
:10093000D01CB0420BD2086CDB780844104480F81D
:10094000243026680432B242D6D300E000260A6C76
:10095000002032440A640A4482F821C0012281F84E
:10096000202070BD002070472DE9F0412DED028B55
:100970004EF6FC04C2F20004206840F2E732411C4B
:100980009042216007DB40F67030C2F201004169FD
:100990008847002020604EF27477C2F200073B6A5D
:1009A00038460121012298474EF2A076C2F2000695
:1009B000336A30460221012298474EF6A405C2F25E
:1009C00000052B6A28460321012298474EF6D008DD
:1009D000C2F20008D8F8203040460421012298478E
:1009E000B7F908009FEDC78A00EE100AB8EEC00AFA
:1009F000F0EE400AB0EE481A788105F023F8B6F917
:100A00000810BDEEC00A10EE100A00EE101AB8EE83
:100A1000C00AF0EE400AB0EE481A3881718105F044
:100A200011F8B5F90810BDEEC00A10EE100A00EE7C
:100A3000101AB8EEC00AF0EE400AB0EE481A308143
:100A4000698104F0FFFFB8F90810BDEEC00A10EE8E
:100A5000100A00EE101AB8EEC00AF0EE400AB0EE2E
:100A6000481A2881A8F80A1004F0ECFF40F670201C
:100A7000C2F2010090F8BC10BDEEC00A10EE102AC0
:100A8000A8F8082011B1D0F8F410884742F29C2051
:100A9000C2F20000006803280CDC44F6E430C2F225
:100AA000010090F84700012804D0BDEC028BBDE89E
:100AB000F08100BF97ED050A40F68834B0EEC00A19
:100AC000C2F20104B1EE048AD4F8D810B4EE480A98
:100AD00004F17000F1EE10FA06DA9FED8E0ADFEDF8
:100AE0008E0AB8EE081A05E09FED870ADFED870A47
:100AF0009FED871A884796ED050AD4F84811B0EEA5
:100B0000C00AB4EE480A04F1E000F1EE10FA07DA88
:100B10009FED800ADFED800AB8EE081A06E000BFFC
:100B20009FED790ADFED790A9FED791A884795EDF7
:100B3000050AD4F8B811B0EEC00AB4EE480A04F5BC
:100B4000A870F1EE10FA07DA9FED720ADFED720A73
:100B5000B8EE081A06E000BF9FED6B0ADFED6B0AE6
:100B60009FED6B1A884798ED050AD4F82812B0EE6D
:100B7000C00AB4EE480A04F5E070F1EE10FA07DAA4
:100B80009FED640ADFED640AB8EE081A06E000BFC4
:100B90009FED5D0ADFED5D0A9FED5D1A8847B7F9AD
:100BA0000820D4F8DC1000EE102AD7ED050A04F175
:100BB0007000B8EEC00A88474EF2CC77B6F908202C
:100BC000BDEEC00AC2F2000787ED040AD4F84C114A
:100BD00000EE102AD6ED050A04F1E000B8EEC00AD6
:100BE00088474EF2F876B5F90820BDEEC00AC2F289
:100BF000000686ED040AD4F8BC1100EE102AD5EDEB
:100C0000050A04F5A870B8EEC00A88474EF6240518
:100C1000B8F90820BDEEC00AC2F2000585ED040A4D
:100C2000D4F82C1200EE102AD8ED050A04F5E07075
:100C3000B8EEC00A88474EF65004BDEEC00AC2F2B4
:100C4000000484ED040A97ED040A97ED051A9FED60
:100C5000338AB8EEC00AF8EEC10AB0EE481A04F0C2
:100C6000F1FEBDEEC00A87ED040A87ED050A96ED98
:100C7000040A96ED051AB8EEC00AF8EEC10AB0EE05
:100C8000481A04F0DFFEBDEEC00A86ED040A86EDC8
:100C9000050A95ED040A95ED051AB8EEC00AF8EEBE
:100CA000C10AB0EE481A04F0CDFEBDEEC00A85EDD3
:100CB000040A85ED050A94ED040A94ED051AB8EED0
:100CC000C00AF8EEC10AB0EE481A04F0BBFE7A6A18
:100CD000BDEEC00A3846012184ED040A84ED050A00
:100CE0009047726A3046022190476A6A284603217B
:100CF0009047626A20460421BDEC028BBDE8F041BA
:100D0000104700BFCDCCCC3DE5D082401283403EA1
:100D10007F6AFC401D5A1842295C8F3E5C8FC23EA0
:100D20004FF4FA6009F086F8002009F0C7F84FF692
:100D30009455C2F20005287840F6702401384EF22E
:100D400080660328C2F20104C2F200060AD8DFE876
:100D500000F003191F2500BF09F0B6F807F0E0FD09
:100D600009F0A4F8022009F065F8002009F0A6F8BF
:100D7000287801380328F5D8DFE800F002040A10CB
:100D8000EAE700BFD4F8FC1020468847EAE700BF36
:100D9000B06809F093F808F00BF8E3E7B06809F0E1
:100DA0008DF807F059FC0BF0EFFBDBE740F2740025
:100DB000C2F2010000F062B870470000EFF310804B
:100DC00072B600BFFEE7000070B5866D044600F005
:100DD000DBFA94F83510022928D105462068216CE9
:100DE000026822F016020260426922F0800242612B
:100DF00009B9A16C19B1016821F00801016001680D
:100E000021F00101016000BF20680068C00715D013
:100E100000F0BAFA401B0628F6D3202060650320B4
:100E200084F83500002184F8341070BD802060659E
:100E30000120002184F8341070BD00BFE06D3F2117
:100E400001FA00F0B060012084F835000020002194
:100E500084F8341070BD000090F83510022909D1D3
:100E6000052180F835100068016821F0010101605A
:100E7000002070478021416501207047F0B581B0A6
:100E80000021009140F22801C2F200010B68D0E974
:100E9000166148F2B51537680822C1F64E358A400A
:100EA0003A42A3FB05350CD003681C68640708D5DB
:100EB0001C6824F004041C60B260426D42F0010220
:100EC000426501228A403A4208D003685B691B06EA
:100ED00004D5B260426D42F00202426504228A40AB
:100EE0003A4208D003681B689B0704D5B260426D84
:100EF00042F00402426510228A403A4219D0016849
:100F00000B681B0715D5B2600B680A685B0309D430
:100F1000D20509D40A6822F008020A60016C29B9D6
:100F200007E000BF110341D4016C11B104468847AA
:100F30002046C26D202101FA02F33B4243D00168F2
:100F40000F68FF063FD5B36090F835700B68052F2A
:100F50001CD123F016030B604B6923F080034B6117
:100F6000036C0BB9836C1BB10B6823F008030B6097
:100F70003F219140B160012180F83510016D0022C0
:100F8000002980F8342054D158E000BF0A685B0380
:100F900010D4D20512D40A6822F010020A6001218E
:100FA00080F83510002180F8341007E0816C0029AA
:100FB000BCD1BEE7110301D4416C00E0C16B11B19B
:100FC000044688472046416DC1B3416DC9072ED004
:100FD000052180F835100168AA0A0B6823F0010387
:100FE0000B60009B0133934200931AD80B68DB0718
:100FF00017D0009B01339342009312D80B68DB0794
:101000000FD0009B0133934200930AD80B68DB0793
:1010100007D0009B01339342009302D80B68DB0793
:10102000DFD1012180F83510002180F83410C16C27
:1010300021B101B0BDE8F040084700BF01B0F0BDEC
:101040002DE9F041044600F09FF9ECB1054602207D
:1010500084F835000020216884F83400086820F006
:101060000100086021680868C00711D000F08CF901
:10107000401B0528F6D9032520230320636584F847
:101080003550BDE8F08100BF0120BDE8F08100BF10
:10109000086848F23F02CFF21002D4E9013500EAB5
:1010A000020C04F10C0898E8C10143EA0C032B433D
:1010B0001843D4E9072E304338431043626A40EAAC
:1010C0000E00042A40EA08031CD1206BD4E90A2E42
:1010D00040EA0E00184308604869BEF1000F20F096
:1010E000030040EA020040F0040C11D0B8F5005FA4
:1010F00036D0B8F1000F45D1022A46D0012A3BD0A4
:1011000032B942E00B60486920F0070040EA020C67
:1011100001F0F8004AF6AB221038CAF6AA22A0FB6A
:1011200002231A094DF2E803C1F814C0C0F6000307
:101130009A5C40F2FF335F284FF03F0021EA030141
:1011400000FA02F088BF0431C4E916128860002357
:1011500001250020636584F83550BDE8F08100BFAB
:10116000032AD5D8012540230120DFE802F0030E31
:10117000030500BF82E700BFAEF1C070B0FA80F097
:10118000400904E0032A04D3C2D1CEF30060002852
:10119000BED0012540230120636584F83550BDE8A9
:1011A000F0810000B0B5044600F0EEF8054640F2CC
:1011B0000400C2F200000078611C18BF044400BFA4
:1011C00000F0E2F8401BA042FAD3B0BD2DE9F04F89
:1011D00083B000F1200200F13E4741F60045009245
:1011E00007F1FF77C4F2020508224FEAB726A842AA
:1011F00008BF072200254FF000084FF00009072E16
:1012000038BF4FEAB72201920AE000BF09F1010995
:1012100008F10208B9F1100F05F1040500F0A280F1
:101220000F68012202FA09FE17EA0E0AEED0D1F881
:1012300004C003220CF003077E1E02FA08F4012EFC
:101240006FEA040B12D88468CE6804EA0B0406FA2D
:1012500008F634438460446824EA0E06CCF3001494
:1012600004FA09F42643466004E000BF032F01D1CD
:1012700003271EE0C6688C6806EA0B0604FA08F429
:101280002643022FC66014D16FF00302009E02EACB
:10129000590756F807C005F01C040F220B69A2403D
:1012A0002CEA0202A3401A43F251D1F804C00CF018
:1012B0000307026807FA08F302EA0B021A431CF458
:1012C000403F0260A2D0002243F644030292C4F2DF
:1012D00002031A6843F6004442F480421A601A6816
:1012E000C4F2010402F480420292029A29F003023D
:1012F0004FF6084C2244CFF6FF7C52F80C3005F034
:101300000C070F26BE40B343019E06FA07F73B4386
:1013100042F80C30A2684B6842EA0A0743F60C4CCC
:10132000DE0258BF22EA0A07A760C4F2010CDCF80B
:1013300000209E0242EA0A0758BF22EA0A07CCF8B8
:10134000007062689E0342EA0A0758BF22EA0A0751
:1013500067602268DB0342EA0A0758BF22EA0A07ED
:10136000276053E703B0BDE8F08F0000426902EA4E
:101370000103914341EA034181617047002A08BF9C
:10138000090481617047000044F63040C2F2010058
:101390000068704740F2040044F63041C2F2000099
:1013A000C2F2010100780A6810440860704700002A
:1013B00080B543F60040C4F20200016841F40071B8
:1013C0000160016841F480610160016841F480714D
:1013D0000160032000F0C2F80F2000F005F800F0D3
:1013E0005DF8002080BD000070B586B0002543F692
:1013F00040010195C4F202010A68044642F020024D
:101400000A60096801A801F020010191019969466B
:1014100001F010F9049E002E18BF012601F030F9EA
:101420004DF68361B040C4F21B31A0FB01014FF0C7
:10143000FF3000EB914140F6440041F20042C2F21D
:101440000100C4F2000240F2E733C0E90021C0E924
:1014500002530561856101F053FF08B106B070BD0C
:1014600040F64400C2F2010001F0E8FF0028F5D187
:10147000372000F035F80F2C0CD8372021460022F9
:1014800000F040F840F208010020C2F200010C60B8
:1014900006B070BD012006B070BD000082B0002013
:1014A00043F640010190C4F202014A6842F48042CE
:1014B0004A604A6802F480420192019A00900868EA
:1014C000002240F08050086008680F2100F0805032
:1014D000009000986FF0010002B000F013B8000017
:1014E000002848BF704700F01F01012202FA01F1F5
:1014F0001C2202EAD0004EF20012CEF2000281500D
:101500007047000010B54EF60C5CCEF2000CDCF813
:101510000030C3F3022E8EF00704042C28BF0424ED
:10152000BEF103034FF0FF3E0EFA04F438BF002370
:10153000A14399400EFA03F39A43114300F00F02BE
:1015400000F160430901043A03F564436244002852
:1015500048BF02F10C03197010BD00004EF60C518B
:10156000CEF200010A684FF6FF031A4060F30A2228
:1015700042F0806040F0FD700860704770470000E6
:1015800002680020516270472DE9F041D0F80080D8
:10159000D8F8243091B1D8F82870B1F1010C03EBE0
:1015A00017414FD05FFA8CF708F58273042F0CF0C7
:1015B000030E0BD2002700242BE000BF43EA0241B8
:1015C0000020C8F82810BDE8F08100BF0CF0FC0531
:1015D00008F1F406002400BF56F8107F44F0020022
:1015E00001EB174144F00107FFB253F82770C0B276
:1015F00053F8200001EB174101EB104044F00301C8
:10160000C9B253F821100434E7B2AF4200EB1141E4
:10161000E2D1BEF1000F15D053F82700BEF1010F43
:1016200001EB10410ED0601CC0B253F82000BEF197
:10163000020F01EB104105D0A01CC0B253F82000EE
:1016400001EB104141EA024008EB8C01C1F80401B2
:101650000020BDE8F0810000D0F8080505F014BBBB
:1016600001EBC102D0F8083500EB8200C26C1846CD
:1016700005F076BA01EBC102D0F8083500EB820024
:10168000D0F88C22184605F0C7BA0000D0F808053B
:1016900005F0FCBA10B501F00F0E0A464FFA81FCB6
:1016A0000EEBCE0100EB810303F51F71BCF1000FBF
:1016B00048BF03F13C0190F8BC34D209012B4A70B9
:1016C00081F800E004BF022010BD0268012380F809
:1016D000BC340446104606F097F8002084F8BC0499
:1016E00010BD0000436801F00F0293423CBF01208F
:1016F000704710B502EBC20300EB83034FFA81FC85
:101700008E4603F51F71BCF1000F48BF03F13C0189
:101710004FEADE134B7090F8BC344FF0000C012BF5
:1017200081F802C00A7004BF022010BD02680123C4
:1017300080F8BC340446104606F0BEFB002084F856
:10174000BC0410BD01F00F0101EBC10100EB8100F1
:10175000D0F89C027047000010B54FFA81FCBCF134
:10176000000F01F00F0C0CEBCC010DD400EB810E3F
:1017700000240EF51F718EF87D428EF87CC2CEF8E3
:1017800088228EF8803209E000EB810101F83CCF1D
:1017900001244C70CA600B71A1F808C0022B04BF71
:1017A00000224A7190F8BC24012A04BF022010BD17
:1017B0000268012380F8BC340446104605F0E2FEBE
:1017C000002084F8BC0410BD80B501F00F0C0CEBB8
:1017D000CC0100EB810ECEF894320023CEF89C327F
:1017E0008EF87D3203690EF51F71CEF88C22012B25
:1017F0008EF87CC208BF4A610068DAB2BCF1000F03
:1018000004D006F0A3FB002080BD00BF06F0AAFABA
:10181000002080BDB0B5426801F00F0494424FF043
:1018200001022CD801EBC10300EB83034FFA81FCCA
:1018300003F51F7304EBC405C90900EB8505BCF172
:10184000000F48BF05F13C03597090F8BC149A7022
:1018500001291C7004BF0220B0BD0168054680F854
:10186000BC240846194606F051FB2CB92868297C8F
:1018700005F2C44206F0F2FA002285F8BC241046B4
:10188000B0BD000080B501F00F0C0CEBCC0100EBFB
:10189000810101F83CCF8B6100230B6203694FF09B
:1018A000010E81F801E0012B0A6108BF4A6100685E
:1018B000DAB2BCF1000F03D006F048FB002080BD77
:1018C00006F050FA002080BD2DE9F04F87B0056882
:1018D0008246284606F032FD10B107B0BDE8F08F11
:1018E000DAF8000006F058FD0028F6D0D5F8080810
:1018F000C0F30D21DAF80000CAF8FC1406F04CFD24
:101900000146DAF80000890703D5416901F00201B8
:10191000416105F50061049106F03EFD0146DAF8EB
:101920000000C906059535D5816921F01001816156
:101930002C6A04F00F0000EBC0000AEB8001C4F336
:101940004340062801F51F7512D002281BD147F627
:10195000F07014EA000616D0296934090598224669
:1019600006F01EFD286900EB1610286108E000BF94
:1019700005980AF2C441082206F012FDC4F30A14C5
:10198000286A20442862DAF80000816941F01001D9
:101990008161059D06F000FD000340F1F180DAF859
:1019A000000006F0D7FC002800F0EA8006460AF2A4
:1019B000C4404FF4306800244FF0000B069019E04B
:1019C00005EB080002218160B80642BF05EB080064
:1019D00020218160B80442BF05EB08004FF400519C
:1019E00081600BF1010B760808F1200804F1240452
:1019F00000F0C680F007F4D0DAF800005FFA8BF947
:101A0000494606F0C1FC0746C00760D005EB080058
:101A100001218160DAF8000008EB0001036C8A689C
:101A2000DAF81050012D25D1150733D4950600F1B1
:101A30009F8043F20B05C4F65475AB42059D02D35B
:101A400012F4004230D10AEB0402D2F8983209694C
:101A50006FF3DF41A3EB0101C2F89C129CBBD2F8EB
:101A60009432002B00F08A80D2F88C020844C2F82D
:101A70008C0228E043F20B05C4F65475FF35AB42E7
:101A800018D1059D10040FD4900644BF2020886013
:101A900019E000BF43F20B00C4F65470059D834269
:101AA00015D312F4004012D04FF40040886038077C
:101AB0000FD43DE0059D34B9DAF8941219B900212C
:101AC000069A06F0CBF950464946FFF7D3FD380792
:101AD0002ED505EB080008218160DAF8000043F2FA
:101AE0000B02056C40448168C4F6547295420BD3D6
:101AF00011F4004108D04FF400418160504600F0DD
:101B0000A5FC059D0AE000BF504600F09FFC43F293
:101B10000B00C4F654708542059D09D3DAF8100015
:101B2000012805D1DAF80000069A012106F096F99D
:101B3000F80642BF05EB080010218160B8077FF569
:101B400043AF6869000604D50499486840F4806092
:101B500048600AEB040090F87F1201297FF430AF4F
:101B6000002180F87F125046494600F019FB27E714
:101B700020208860059D3807ABD4D9E701219FE775
:101B8000DAF80000CDF818A006F006FC400340F19A
:101B9000D5800698006806F0D5FB002800F0CE80BE
:101BA0000646069805F5106900F13C0100F2C440B4
:101BB000002703910190CDF8089004E0760807F122
:101BC000010700F0BB80F007F8D006985FFA87FAAB
:101BD0000068514606F0C6FB0446C00726D0049AAA
:101BE00007F00F00516B012303FA00F021EA000017
:101BF000506309EB4710836006980069012811D1F2
:101C0000039907EBC70001EB8000D0E903121144F0
:101C100001613FB9806928B90698019A00680121DD
:101C200006F01CF906985146FFF71AFD200742BF3F
:101C300009EB471008218160E00642BF09EB47101D
:101C400010218160600642BF09EB4710402181608E
:101C5000A00716D52846394606F006FB039907EB80
:101C6000C70001EB800010F8031F012905D10021F6
:101C700001700698514600F08FFA09EB47100221D7
:101C8000816020069AD5039907EBC70001EB800815
:101C9000D8F81820D8F8200082428FD30699D8F8B7
:101CA0000C300C68111A994238BF0B4604EB4711EF
:101CB000D1F818C903F1030E1FFA8CF3B3EB9E0F92
:101CC0002DD301F5106900BFD8F81820824224D91D
:101CD000101A069AD8E903B1157C584538BF8346D7
:101CE0001FFA8BF3204652460095059D06F07EFCB8
:101CF000D8F81000D8F820105844C8F8100001EBAC
:101D00000B00C8F82000D9F818100BF1030289B2B3
:101D1000B1EB920FD8D2D8F81820DDF808908242A3
:101D20003FF64CAF07F00F00D4F83418012202FA46
:101D300000F021EA0000C4F834083FE7069C206860
:101D400006F02AFB00281DD4206806F025FB0005BC
:101D500036D4206806F020FBC00441D504994868B9
:101D600020F0010048602068102106F07DFA6068CC
:101D7000002800F0F280042800F0030C32D2002189
:101D80009EE000BF0499486820F00100486094F884
:101D9000F404012808D1002084F8F404204600212E
:101DA000FFF7ECFB03E000BF204600F031FB2068AA
:101DB000416901F00041416106F0EEFA0005C8D525
:101DC00004988068C00702D0204600F067FB2068B6
:101DD000416901F40061416106F0DEFAC004BDD43E
:101DE0002068E2E020F0030E05F536634FF6A058B8
:101DF0004FF6C0554FF6E0564FF6006000214FF603
:101E00007F37CFF6FF78CFF6FF75CFF6FF76CFF6A8
:101E1000FF7000BFA3F51872976053F808200431D3
:101E200022F4001243F8082043F8587C53F8602C41
:101E30008E4522F4001243F8602C53F8602C42F0D7
:101E4000006243F8602CA3F5107297605A5922F48F
:101E500000125A5143F8387C53F8402C22F40012F7
:101E600043F8402C53F8402C42F0006243F8402CD9
:101E7000A3F5087297609A5922F400129A5143F818
:101E8000187C53F8202C22F4001243F8202C53F82D
:101E9000202C42F0006243F8202CA3F500729760DA
:101EA0001A5822F400121A509F601A6822F4001285
:101EB0001A601A6842F000621A6003F18003A9D127
:101EC000059DBCF1000F48D005F5106000EB4112F4
:101ED0004FF67F334F019360C65905F5306226F403
:101EE0000016C65102EB4116B360D659BCF1010F82
:101EF00026F40016D651D65946F00066D6512CD09D
:101F00004F1C00EB47157E01AB60855902EB47176C
:101F100025F400158551BB609359BCF1020F23F4E1
:101F200000139351935943F00063935115D002313C
:101F300000EB41174FF67F364B01BE60C75827F4C0
:101F40000017C75002EB41108660D05820F40010F3
:101F5000D050D05840F00060D050049E8422F069E8
:101F6000442340F00110F061216B206800294FF0FC
:101F70000B0108BF142208BF42F22B01B75808BF5B
:101F800010233943B150F15804F2C44241F00B011F
:101F9000F150316821F4FE613160217C05F05EFF73
:101FA0002068416901F48051416106F0F5F901466C
:101FB0002068890415D505F027FB206806F0B0F9E4
:101FC0002568E06000F056FB227B0146284606F0BB
:101FD00081FA204600F006FA2068416901F40051B8
:101FE000416106F0D9F9000706D4206806F0D4F95B
:101FF00000060DD434E000BF204600F00DFA206842
:10200000416901F00801416106F0C6F9000627D5D3
:102010000599886920F080008861606802281FD3D4
:1020200004F51F7804F13C05012640F2A32704E0E3
:102030000136864207F1240712D2E15D0129F7D16A
:1020400006F00F0000EBC0023006206805EB8201AD
:1020500058BF08EB820106F077F86068E8E700BF38
:10206000206806F099F9C0024AD4206806F094F975
:10207000059D800277D56168022929D305F5326074
:10208000013904F52972012305E000BF2030013930
:1020900002F124021CD007681678012EF6D1B7F1A0
:1020A000FF3FF3DCD4F8FC6407F4803706F0010648
:1020B000B742EBD102F8013CAF6947F08007AF614E
:1020C0006F693F06E2D40499486840F400704860A4
:1020D0002068416901F40011416106F05DF940009A
:1020E00046D52046FFF7B8FA2068416901F08041E3
:1020F000416106F051F940077FF5EFAB3EE000BFCC
:102100006068022824D3059904F13C0901F51265A1
:1021100004F163064FF00108012705E0013720357F
:10212000874206F1240613D229687278012AF5D174
:10213000B1F1FF3FF2DC07F00F0000EBC0012068B7
:1021400009EB810186F8008005F0FEFF6068E5E795
:102150002068416901F48011416106F01DF9059D77
:1021600080023FF588AF206806F016F94000B8D429
:10217000206806F011F940077FF5AFAB206845688D
:10218000690703D52046FFF781FA20684168294393
:10219000416007B0BDE8F08FD0F8080504F0DCBD61
:1021A000D0F8080504F0EEBD002804BF01207047F8
:1021B0002DE9F04F8BB08246056890F8BD0428B930
:1021C00000208AF8BC04504600F0C8F803208AF8C2
:1021D000BD04E86BC0055CBF0020CAF81000DAF847
:1021E000000005F0B7FDDAF800000AF120090A90B6
:1021F000DAE90B64DAF834000AF1040E99E8800396
:102200009EE82E58CDE9084004A880E880030A988B
:102210008DE82058079605F007FA002840F08880DE
:10222000DAF800000021002506F010F9DAF80410B1
:1022300000295CD00AF13C004FF0010C0022002381
:1022400002EBC20200EB820700F82230DAB201335F
:102250003A81DAB2914287F801C03D71C7E903556E
:10226000BD61EDD80AF51F7000220025002300BFD4
:1022700005EBC50743F00105ECB200EB8706A14270
:10228000727000F827303271C6E90322B2612ED98C
:1022900004EBC40700F8275043F00205ECB200EB52
:1022A0008706A14272703271C6E90322B2611ED95B
:1022B00004EBC40700F8275043F00305ECB200EB31
:1022C0008706A14272703271C6E90322B2610ED94B
:1022D00004EBC407043300F82750DDB200EB870697
:1022E000A94272703271C6E90322B261C0D8DAF82D
:1022F0000800DAF800200A90DAE90C40DAE905650E
:102300000AF11C0EDAE903379EE80058DAE90A8977
:10231000CDE9084002A880E8205810460A9ACDE985
:102320000076CDF81880CDF81C9005F0CFFA38B1C2
:1023300002208AF8BD0401200BB0BDE8F08F00BF79
:1023400000208AF8380001208AF8BD04DAF800007D
:1023500005F0ACFA00200BB0BDE8F08FB0B586B048
:1023600000680024B0F1A04F0594CDE90344029425
:10237000019401D006B0B0BD43F630050094C4F21C
:102380000205286801A940F001002860286800F0D3
:102390000100009000984FF4C05001900220CDE958
:1023A0000204032004900A2005900020C4F20200D9
:1023B000FEF70CFF6868052140F08000686000941B
:1023C0006869002240F480406861686900F48040D8
:1023D000009000984320FFF795F84320FFF780F81E
:1023E00006B0B0BD10B50446C06828B1022801D0BF
:1023F000FEF7E4FC012100E00021D4F8080504F018
:1024000047FDD4F80805BDE8104004F0F7BC000013
:10241000D0F8080504F022BDD0F8080504F028BD66
:1024200090F8BC24012A04BF0220704710B5012295
:1024300080F8BC2480F8381002680446104606F084
:1024400037F8002084F8BC0410BD0000D0F808253F
:1024500000F2C441104604F031BD000010B504463E
:1024600090F8BC04012804BF022010BDA16A2068B6
:102470000122012984F8BC2406D1A169012903D0D5
:10248000816B41F48031816305F0E6FE206805F040
:10249000FDF9002084F8BC0410BD000010B504460E
:1024A000D0F8080504F060FD2068D0F8001E41F067
:1024B0000101C0F8001E206A002808BF10BD4EF6BA
:1024C0001050CEF20000016841F00601016010BD1D
:1024D000002804BF012070472DE9F04143F60808A9
:1024E000C4F202080446D8F8F8030D4600F00700CD
:1024F000884207D288F8F853D8F8F80300F00700AC
:10250000A84277D12068810717D5410705D5D8F8AB
:10251000001041F4E051C8F80010010705D5D8F8C3
:10252000001041F46041C8F80010D8F80010A2680B
:1025300021F0F0011143C8F80010C00740D1D8F8CD
:10254000F80300F00700A84207D988F8F853D8F834
:10255000F80300F00700A8424CD12068410707D5D6
:10256000D8F80010E26821F4E0511143C8F80010D7
:10257000000708D5D8F80000216920F4604040EA3F
:10258000C100C8F8000000F0A3F8D8F800104DF220
:10259000D002C1F30311C0F60002515C40F22802E0
:1025A00020FA01F140F20800C2F200000068C2F215
:1025B00000021160FEF718FF0020BDE8F08100BFA7
:1025C0006068811E022907D258F8081C89015CBF87
:1025D0000120BDE8F08111E0012807D158F8081C5E
:1025E00089035CBF0120BDE8F08107E058F8081CB2
:1025F000890703D40120BDE8F08100BFD8F800109E
:1026000021F003010843C8F80000FEF7BDFE0646AE
:1026100041F28837D8F80000616800F00C00B0EB98
:10262000810F8CD0FEF7B0FE801BB842F2D9032098
:10263000BDE8F0810F22026043F60802C4F20202F4
:10264000136803F003034360136803F0F00383602F
:10265000136803F4E053C360D2F800C04FF4E053B2
:1026600003EADC030361D2F8F80300F00700086016
:102670007047000040F22800C2F200000068704776
:1026800040F2280043F60801C2F20000C4F2020141
:10269000006809684DF2E002C1F38221C0F6000231
:1026A000515CC8407047000040F2280043F6080122
:1026B000C2F20000C4F20201006809684DF2E002B3
:1026C000C1F34231C0F60002515CC84070470000BF
:1026D00010B543F60404C4F20204606800F00C0173
:1026E00042F200400829C0F2F40007D0042918BFC4
:1026F00010BD41F20020C0F27A0010BD216801F047
:102700003F02216823684902C3F3881106D4A1FB64
:1027100000010023FDF754FD07E000BF41F2002057
:10272000C0F27A004843B0FBF2F021680222C1F304
:10273000014102EB4101B0FBF1F010BD002804BFE4
:10274000012070472DE9F04182B00446007843F63D
:102750000006C007C4F202060CD0B06800F00C00FE
:10276000042840F081803068800303D56068002829
:1027700000F06881207880071BD5B06810F00C0F3E
:1027800009D0B06800F00C00082840F0878070681D
:10279000400200F183803068800703D5E06801289B
:1027A00040F050813068216920F0F80040EAC10013
:1027B00030602078000713D4207840072AD4A56918
:1027C000002D00F03A81B06800F00C00082840F0BD
:1027D000A580012D40F00E81012002B0BDE8F081FE
:1027E0006069002800F082800020C4F247200121A7
:1027F000C0F8801EFEF7C8FD054600BF706F800759
:10280000DAD4FEF7C1FD401B0228F7D9032002B03D
:10281000BDE8F081306C5FEAC0080AD40020019066
:10282000306C40F080503064306C00F0805001908B
:10283000019847F20007C4F200073868C00547D482
:10284000386840F480703860FEF79EFD054600BF92
:102850003868C0053CD4FEF797FD401B0228F7D925
:10286000032002B0BDE8F081B06800F00C00082839
:1028700003D1706840023FF576AF61683068B1F50A
:10288000803F07D0B1F5A02F40F09A8040F480201F
:102890003060306840F4803030609AE0E0680028B2
:1028A00040F20000C4F247205CD001210160FEF735
:1028B0006BFD0546306880073FF574AFFEF764FD99
:1028C000401B0228F6D9032002B0BDE8F08100BF0A
:1028D000A168306F012905D0052955D140F00400C9
:1028E0003067306F40F00100306756E00020C4F2DE
:1028F00047200021C0F8801EFEF746FD054600BFB8
:10290000706F80077FF558AFFEF73EFD401B022831
:10291000F6D9032002B0BDE8F08100BF0027C4F261
:10292000472700203866FEF72FFD022D05460DD102
:102930003068800140F18A80FEF726FD401B0228A6
:102940004FF00300F4D902B0BDE8F0813068800197
:1029500073D5FEF719FD401B02284FF00300F5D98F
:10296000F1E700BF00210160FEF70EFD054600BF44
:10297000306880077FF51DAFFEF706FD401B02287B
:102980004FF00300F4D9DEE720F001003067306F2C
:10299000002920F0040030677AD0FEF7F5FC0546E8
:1029A00041F28837306F800700F18480FEF7ECFC3D
:1029B000401BB842F6D9032002B0BDE8F08100BF49
:1029C00020F4803030603068002920F480203060AE
:1029D0007AD0FEF7D9FC0546306880033FF5CAAED1
:1029E000FEF7D2FC401B6428F6D9032002B0BDE8F4
:1029F000F08100BF7068E16900F480028A4221D151
:102A0000216A00F03F028A421CD147F6C071626A17
:102A10000140B1EB821F15D1A16A4FF6FF73C903C4
:102A2000994300F44032A1F580318A420AD1E16A2B
:102A300000F07060B0EB016F04D1002002B0BDE87F
:102A4000F08100BF012002B0BDE8F08104F11C0557
:102A50002FCD084340EA8210D9034FF6FF7291430D
:102A6000A1F5803140EA05600843706001203866B6
:102A7000FEF78AFC044600BF30688001DDD4FEF713
:102A800083FC001B02284FF00300F5D95BE700BF71
:102A9000FEF77AFC054641F2883700BF306F8007A9
:102AA00008D5FEF771FC401BB8424FF00300F5D982
:102AB00049E700BFB8F1000F3FF581AE306C20F060
:102AC000805030647BE600BFFEF75EFC054600BF29
:102AD000306880037FF54EAEFEF756FC401B64283D
:102AE0004FF00300F4D92EE770B528B1416A29B13F
:102AF00000210161142106E0012070BD4168B1F59B
:102B0000827F02D01C21002242500026866290F86B
:102B1000511029B980F85060054600F03DF828466C
:102B2000022180F8511090E82E0002F482720C68A5
:102B300003F4044324F040040C601A4405F40063D9
:102B400005691A4405F0020345691A4405F00103BA
:102B50008569C4691A4405F400731A4404F0380303
:102B6000046A1A4404F08003846A1A4304F400538C
:102B70001A430A60436A042202EA154203F0100372
:102B80001A444A60CA6922F40062CA61012146659A
:102B900080F85110304670BDF0B587B0006843F63C
:102BA00000020024C4F20002C4F202040021904298
:102BB000CDE90511CDE9031102913BD043F20001AB
:102BC000C4F2010188425CD1002543F63000019532
:102BD000C4F202004169022641F480514161416919
:102BE000032701F48051019101990195016841F099
:102BF00001010160016801F0010101910199019554
:102C0000016841F002010160006802A900F00200C1
:102C10000190019820200290052006902046CDE9E1
:102C200003650597FEF7D2FA3020CDE90206CDE91B
:102C300004571FE043F630000191C4F2020002691C
:102C400042F480420261026902F480420192019AD8
:102C50000191026842F002020260006800F0020086
:102C6000019001984FF4604002900220CDE90301E9
:102C7000032005900520069004F5806002A9FEF768
:102C8000A5FA07B0F0BD00002DE9F04383B004467B
:102C900090F85000012803D1022003B0BDE8F08372
:102CA0004FF001081D460F46164684F85080FEF787
:102CB0006BFB94F85110012946D18146002F4FF04B
:102CC000010018BF002E00F0D6800320002284F8F7
:102CD000510062652763A686E686A263A287E28723
:102CE000A0683146B0F5004F20682264626407D1C5
:102CF000026822F040020260026842F480420260F0
:102D00000268520603D4026842F040020260626820
:102D10000139E368B2FA82F2B1FA81F15209490944
:102D2000B3F5006F41EA02013CD131B137F8021B23
:102D3000C1602763E08E0138E086E08E00286BD00A
:102D4000681C0ED11DE000BF022094E0216B31F819
:102D5000022BC2602163E08E0138E086E08E0028FD
:102D60005AD0206881688907F0D4FEF70DFBA0EBEC
:102D70000900A842F2D338E0FEF706FBE08E0028F7
:102D80004AD0206881688907F6D5216B31F8022B7B
:102D9000C2602163E08E0138E086E08E0028F0D129
:102DA0003AE000BF39B139780173206B01302063FC
:102DB000E08E0138E086E08E70B3681C0BD11BE01A
:102DC000216B09780173206B01302063E08E01389C
:102DD000E086E08E00B3206881688907F0D4FEF7B2
:102DE000D3FAA0EB0900A842F3D3032043E000BFCD
:102DF000FEF7CAFAE08E78B1206881688907F7D5B6
:102E0000216B09780173206B01302063E08E01385B
:102E1000E086E08E0028EFD140F22800C2F20000E8
:102E2000006849F68171C1F25E61A0FB0101480DA5
:102E30004FF47A71484302906068B0F5827F23D1E5
:102E4000204680212A464B4602F008FE28B1606DDC
:102E500040F02000606520206065A06838B900203F
:102E600001902068C1680191806801900198606DAF
:102E7000002818BF0120002184F8518084F85010E8
:102E800003B0BDE8F08300BF02980028E5D00298A7
:102E900001380290206880680006DED5029800287C
:102EA000DBD0029801380290206880680006D4D5F3
:102EB00002980028D1D002980138029020688068DA
:102EC0000006CAD502980028C7D00298013802909F
:102ED000206880680006D7D4BFE700002DE9F043E2
:102EE00083B0044690F85000012803D1022003B0BB
:102EF000BDE8F08301201E4615460F4684F85000B9
:102F0000FEF742FA94F851108146012940F098806A
:102F1000002F4FF0010018BF002D00F06081002E3F
:102F200000F05D8194F85100002104281CBF0520A9
:102F300084F851006165A563E687A6872763E68666
:102F40002068A686216461640168490603D401688B
:102F500041F0400101606168731EE268B1FA81F1DD
:102F6000B3FA83F3DDF8288049095B09B2F5006FF5
:102F700041EA030174D131B137F8021BC160276304
:102F8000E08E0138E086012518F1010031D101E021
:102F9000FEF7FAF9E08E18B9E08F002800F0C8803B
:102FA0002068816889070CD5E18E51B1012D08D1C7
:102FB000216B002531F8022BC2602163E18E0139BB
:102FC000E1868168C907E3D0E18F0029E0D0C068BD
:102FD000A16B012521F8020BA163E08F0138E08786
:102FE000D6E700BFFEF7D0F9A0EB0900404580F01E
:102FF000F580E08E18B9E08F002800F099802068F5
:10300000816889070CD5E18E51B1012D08D1216B62
:10301000002531F8022BC2602163E18E0139E1867F
:103020008168C907DED0E18F0029DBD0C068A16BC1
:10303000012521F8020BA163E08F0138E087D1E779
:103040006068B0F5827F09D104294FF0020040F09A
:10305000C680A16800293FF45BAFC0E00220BEE05B
:1030600039B139780173206B01302063E08E01386B
:10307000E086012518F1010032D101E0FEF784F964
:10308000E08E10B9E08F002852D02068816889074F
:103090000ED5E18E61B1012D0AD1216B0025097891
:1030A0000173216B206801312163E18E0139E186D2
:1030B0008168C907E2D0E18F0029DFD0C068A16B29
:1030C00001250870A06B0130A063E08F0138E08714
:1030D000D4E700BFFEF758F9A0EB090040457DD2C8
:1030E000E08E08B9E08F18B32068816889070ED593
:1030F000E18E61B1012D0AD1216B002509780173A0
:10310000216B206801312163E18E0139E1868168FC
:10311000C907DFD0E18F0029DCD0C068A16B012591
:103120000870A06B0130A063E08F0138E087D1E721
:1031300040F22800C2F20000006849F68171C1F235
:103140005E61A0FB0101480D4FF47A714843029083
:103150006068B0F5827F0FD12046802142464B4601
:1031600002F07CFC60B3606D40F0200060652020C0
:103170006065012033E000BF029808B3029801386F
:1031800002902068806800061AD50298C0B10298A3
:103190000138029020688068000611D5029878B145
:1031A00002980138029020688068000608D50298CD
:1031B00030B1029801380290206880680006DBD4A4
:1031C000A06800284FF0000009D101902168CA686A
:1031D000019289680191019901E000BF032001215A
:1031E00084F85110002184F8501003B0BDE8F0833A
:1031F000704700007047000090F83C20012A04BF8F
:1032000002207047B0B501F108053CCDD1E900CEF0
:1032100023F47C5322F470521A432EF4F0431A43E1
:103220002CF4E0431A4324F4C0431A432A43C969E7
:1032300022F48042036811435964002180F83C1055
:103240000020B0BD90F83C20012A4FF0020254D07B
:1032500010B580F83D200268D2F804E0D2F808C02A
:103260000C682EF07003234341F2FF74C4F2000493
:10327000A24253600EDC40F2FF73C4F200039A4294
:1032800016DCB2F1804F2BD040F20043C4F20003B1
:1032900024E000BF40F2FF33C4F201039A4213DC82
:1032A00041F60003C4F200039A4219D0002313E050
:1032B00040F60003C4F200039A4211D040F60043E6
:1032C000C4F200030AE000BF44F20003C4F20103A9
:1032D0009A4205D040F20043C4F201039A4204D15D
:1032E00049682CF08003194391600121002280F885
:1032F0003D1080F83C20BDE81040104670470000AB
:10330000002804BF0120704710B5044690F83D0026
:1033100028B9002084F83C00204600F01FF8022065
:1033200084F83D002068211D02F0C2FD012084F8D0
:10333000460084F83E0084F83F0084F8400084F89A
:10334000410084F8420084F8430084F8440084F883
:10335000450084F83D00002010BD0000F0B583B0AA
:103360000168B1F1804F2DD044F20000C4F2010099
:10337000814215D00020C4F2010081421FD10020FB
:10338000029043F64400C4F20200016841F00101DA
:103390000160006800F001000290029803B0F0BDE7
:1033A0000020009043F64400C4F20200016841F49A
:1033B00080310160006800F480300090009803B014
:1033C000F0BD00BF0546002043F644010190C4F261
:1033D000020151F8042C40F2740442F0010241F859
:1033E000042C51F8041CC2F2010401F00101019106
:1033F000019946F2A001C4F202014FF0C0624023DD
:1034000084E80E0004F10C014FF4806C4FF4805EF0
:103410004FF480464FF4807781E80150C4E90800FA
:103420002046C4E90667FDF70BFE002818BFFDF72C
:10343000C5FCAC622C63A56303B0F0BD90F83D10F1
:1034400001291CBF01207047022180F83D1000684F
:1034500041F2FF72C168C4F20002904241F00101E2
:10346000C1600DDC40F2FF71C4F20001884215DC3E
:10347000B0F1804F2AD040F20041C4F2000123E0B5
:1034800040F2FF31C4F20101884213DC41F6000131
:10349000C4F20001884219D0002113E040F6000177
:1034A000C4F20001884211D040F60041C4F200018C
:1034B0000AE000BF44F20001C4F20101884205D0D5
:1034C00040F20041C4F20101884206D1816801F056
:1034D0000701062904BF00207047016841F001017F
:1034E000016000207047000090F83C20012A4FF056
:1034F00002026CD080B580F83D20D0F800C04FF6B5
:103500007772DCF8083023EA0202CCF808200B6856
:103510004F2B29DC1F2B45DD202B46D0302B44D0F0
:10352000402B40F0AF80D1F804E0C968DCF82030CF
:10353000DCF8202022F00102CCF82020DCF8182052
:1035400022F0F00242EA011123F00A0242EA0E02DE
:10355000CCF81810CCF82020DCF8081041F0470116
:1035600021F0300128E000BF6F2B33DDB3F5005FA1
:1035700074D0B3F5805F21D0702B40F08380D1E907
:1035800001E3C968DCF8082043EA0E0322F47F4215
:1035900043EA01211143CCF80810DCF8081041F08F
:1035A000770109E00BB1102B6CD1DCF8081021F089
:1035B0007001194341F00701CCF8081000220121E5
:1035C00080F83D10002180F83C10BDE88040104696
:1035D000704700BF502B21D0602B53D1D1F804E0AD
:1035E000C968DCF8203023F01003CCF82030DCF878
:1035F0001830DCF8202023F4704322F0A00243EAC4
:10360000013142EA0E12CCF81810CCF82020DCF878
:10361000081041F0670121F01001CDE7D1F804E076
:10362000C968DCF82030DCF8202022F00102CCF858
:103630002020DCF8182022F0F00242EA011123F0E9
:103640000A0242EA0E02CCF81810CCF82020DCF86E
:10365000081041F0570121F02001ADE7D1E901E365
:10366000C968DCF8082043EA0E0322F47F4243EAEB
:1036700001211143CCF80810DCF8081041F4804116
:103680009AE700BF01229AE7002804BF0120704793
:103690002DE9F047044690F83D000D4628B900207A
:1036A00084F83C00204600F049F8022084F83D00F0
:1036B000206844F20702816891438160211D02F075
:1036C000F7FB20684FF6FF7881688269D0F820C048
:1036D000D5E9003ED5E9026A43EA0109AB6922EA6D
:1036E000080246EA03234FF6FC46B343D5E90767D1
:1036F00042EA0A0229691A4342EA062242EA011111
:103700002CF0AA026B6942EA0E0241EA073142EA52
:103710000312C0F8089081610262012084F846001B
:1037200084F83E0084F83F0084F8420084F84300A7
:1037300084F83D000020BDE8F087000080B586B029
:10374000006840F6FF31C4F2000188424FF00001EA
:103750000591CDE90311CDE901112FDC40F20041C3
:10376000C4F20001884257D040F60001C4F20001C3
:10377000884240F09580002043F630010090C4F26A
:1037800002010A6942F004020A610A6902F00402B5
:103790000092009A0090086840F0080008600868ED
:1037A000022100F00800009000984FF44050019072
:1037B0000020C4F2020000F5406068E040F60041DD
:1037C000C4F20001884243D040F20041C4F201013A
:1037D000884265D1002043F630010090C4F2020116
:1037E0004A6942F002024A614A6902F0020200920A
:1037F000009A0090086840F00400086008680321FF
:1038000000F0040000900098C02001900020C4F255
:10381000020000F500603AE0002043F6300100901D
:10382000C4F202010A6942F002020A610A6902F066
:1038300002020092009A0090086840F001000860BF
:10384000086800F0010000900098C0201AE000BF56
:10385000002043F630010090C4F202010A6942F0F0
:1038600008020A610A6902F008020092009A0090B8
:10387000086840F001000860086800F0010000904E
:1038800000980320019000200221C4F202000222CD
:1038900002920022059101A9CDE90322FDF796FCD1
:1038A00006B080BD80B590F83E2090F83F3090F88B
:1038B00042E090F843C004290AD0B9B9012A4FF078
:1038C000010208BFBEF1010F34D0104680BD00BF19
:1038D000012B4FF0010208BFBCF1010FF5D102210D
:1038E00080F83F1080F8431000681EE0012A4FF076
:1038F000010208BF012BE8D1BEF1010FE5D1BCF1F7
:10390000010FE2D1022280F83E2080F83F2080F8AB
:10391000422080F8432091B10068016A21F0010142
:103920000162016A41F00101016210216FF0100291
:1039300009E000BF022180F83E1080F842100068C4
:1039400001216FF00102036A1A400262026A114308
:1039500001620168002241F001010160104680BD52
:103960007047000010B5016804460869800744BF2D
:10397000C8685FEA807039D40869400744BFC868E6
:103980005FEA40703ED40869000744BFC8685FEA38
:10399000007045D40869C00644BFC8685FEAC060CB
:1039A0004AD40869C0071CBFC8685FEAC07051D11B
:1039B0000869000644BFC8685FEA006052D408691D
:1039C000400644BFC8685FEA406053D40869800677
:1039D00046BFC8685FEA806010BD6FF020022046D5
:1039E0000A61BDE81040FFF705BC00BF6FF00200A0
:1039F0000861012020778869800743D02046FFF7BF
:103A0000AFFF45E06FF0040008610220207788696D
:103A100010F4407F40D02046FFF7A2FF42E000BFF5
:103A20006FF00800086104202077C86980073DD046
:103A30002046FFF795FF3FE06FF010000861082077
:103A40002077C86910F4407F3AD02046FFF788FFFE
:103A50003CE000BF6FF001000861204600F08AFAE8
:103A60002168A5E76FF0800008612046FFF7C0FBE2
:103A70002168A4E76FF040000861204600F084FA56
:103A80002168A3E7204600F0A9F8204600F0E8F9F5
:103A90002168002020776FE7204600F09FF820463D
:103AA00000F0DEF92168002020776CE7204600F066
:103AB00095F8204600F0D4F921680020207769E7C6
:103AC000204600F08BF8204600F0CAF9216800205B
:103AD000207766E7F0B587B000680024B0F1804F2A
:103AE0000694CDE90444039402943FD044F20001CB
:103AF000C4F2010188421DD00021C4F201018842B4
:103B000069D1002043F630010190C4F202010A6835
:103B100042F010020A60096801F010010191019958
:103B20004FF4D44102910221CDE903100590012008
:103B300016E000BF002043F630010190C4F20201FC
:103B40000A6842F010020A60096801F01001019150
:103B50000199602102910221CDE903100590032013
:103B6000069041F20000C4F2020031E043F630005A
:103B70000194C4F20200016841F2000741F0010122
:103B800001600168C4F2020701F00101019101998D
:103B900001940168022541F00201016000680126DC
:103BA00000F002000190019848F20C000290A7F585
:103BB000805002A9CDE9035405940696FDF706FB53
:103BC0000820CDE90205CDE904440696A7F540603A
:103BD00002A9FDF7FBFA07B0F0BD00007047000036
:103BE00090F83C30012B04BF022070474FEAB2022C
:103BF000032A00F2FF802DE9F043DFE802F003B171
:103C00003F7F00BF036840F200461A6A43F48065B4
:103C100022F001021A621C6A1A46D3F804C052F854
:103C200018EF8F6824F00204C4F20106B54244EA9A
:103C3000070405D1CF6824F00C0427F004073C43A7
:103C40000F68B54206D1D1E905582CF440762E43D1
:103C500046EA080C2EF073063743C3F804C09F6190
:103C60004F6809695F631C629F6947F008079F619D
:103C70009F6927F004079F61B1E000BF036840F22D
:103C800000481A6A43F4806522F480721A621C6A42
:103C90001A46D3F804C052F81CEF8F6824F400745D
:103CA000C4F20108454544EA072408D1CF6840F230
:103CB000FF463F0224F4406427EA06063443D1F865
:103CC0000090454506D1D1E905562CF440572E43C6
:103CD00047EA061C2EF0730747EA0907C3F804C039
:103CE000DF614F680969DF631C62DF6947F008071D
:103CF000DF61DF6927F00407DF6170E0036840F2ED
:103D000000451A6A43F4806722F480521A621A4608
:103D1000D3F820C05C6852F81C8FD1F800E08E68A0
:103D2000C4F20105AF4204D14D6924F4804444EA51
:103D300085142CF4005747EA063728F4E64646EA8D
:103D40000E265C60DE614E6809691E641F62DF69D1
:103D500047F40067DF61DF6927F48067DF613DE0DA
:103D6000036840F200481A6A43F4806522F01002AA
:103D70001A621C6A1A46D3F804C052F818EF8F680A
:103D800024F02004C4F20108454544EA071407D191
:103D9000CF686FF0400624F0C00406EA07163443EB
:103DA000D1F80090454506D1D1E905562CF440677D
:103DB0002E4347EA860C2EF4E64747EA0927C3F864
:103DC00004C09F614F6809699F631C629F6947F443
:103DD00000679F619F6927F480679F6109021368EC
:103DE000194311600021BDE8F043002280F83C2017
:103DF000084670470121002280F83C2008467047A1
:103E0000002804BF0120704710B5044690F83D001B
:103E100028B9002084F83C00204600F01FF802205A
:103E200084F83D002068211D02F042F8012084F84A
:103E3000460084F83E0084F83F0084F8400084F88F
:103E4000410084F8420084F8430084F8440084F878
:103E5000450084F83D00002010BD000070470000C0
:103E600070470000C1B1042908D0082914BF4122BD
:103E70004022825C012A05D016E000BF3F22825C0E
:103E8000012A11D10222082910D0042914BF80F878
:103E9000412080F83F200BE090F83E20012A03D11A
:103EA000022280F83E2003E00120704780F8402085
:103EB000006801F01F010122036A02FA01F123EAFE
:103EC00001020262026A114341F2FF72C4F200026F
:103ED000904201620CDC40F2FF71C4F200018842A2
:103EE00014DCB0F1804F37D040F2004116E000BF43
:103EF00040F2FF31C4F20101884215DC41F60001B5
:103F0000C4F20001884227D0002115E040F60001EC
:103F1000C4F2000188421FD040F60041C4F2000103
:103F2000884219D01FE000BF44F20001C4F2010131
:103F3000884211D040F20041C4F20101884212D1FE
:103F4000416C40F2004340F48062C4F2010341F44A
:103F500000419A42416406D1816801F007010629B7
:103F600004BF00207047016841F00101016000209A
:103F700070470000006841F20041C4F2000188422D
:103F800018BF7047FDF706BA704700007047000081
:103F900070470000B0B582B001680A68CC684B6910
:103FA00002F02F05202D04F0200505D125B102B027
:103FB000BDE8B04002F022B85FEA027C1EBF03F009
:103FC000010E04F4907313EB0E0341D1036BD5067D
:103FD00018D5012B16D114F0100313D00022019232
:103FE0000A6801924A680192019A496949064BD4CC
:103FF000818DC28DC38D002B18BF914240F0F2819C
:1040000002B0B0BD13062DD514F080032AD090F86D
:104010003D20212AF4D18268B2F5805F03D1026984
:10402000002A00F06382026A531C036212784A601D
:10403000C28C013A1304C284E2D1C86820F0800027
:10404000C860C86840F04000C86002B0B0BD00BFA2
:10405000D30718BF14F4807340F0CE80530700F1EB
:10406000D180D6E05206CBD514F04002C8D0CA6841
:1040700022F04002CA60202180F83D1002B0BDE865
:10408000B04000F055BD00BF826B11684B689DB217
:10409000002DB5D0818D8D42B2D2C385D269B2F5E3
:1040A000807F00F0A180016851E8031F026821F4BD
:1040B000807142E80313DBB1016851E8031F026815
:1040C00021F4807142E8031393B1016851E8031FA2
:1040D000026821F4807142E803134BB1016851E892
:1040E000031F026821F4807142E80313002BDAD128
:1040F000016851E8051F026821F0010142E805133B
:10410000BBB3016851E8051F026821F0010142E8D4
:10411000051373B3016851E8051F026821F001011E
:1041200042E805132BB3016851E8051F026821F02E
:10413000010142E80513002BDAD11AE0016851E8C9
:10414000051F026821F0400142E80513DBB1016858
:1041500051E8051F026821F0400142E8051393B1C0
:10416000016851E8051F026821F0400142E805138B
:104170004BB1016851E8051F026821F0400142E897
:104180000513002BDAD1202180F83E1000210163B5
:10419000016851E8031F026821F0100142E803138F
:1041A000DBB1016851E8031F026821F0100142E809
:1041B000031393B1016851E8031F026821F0100155
:1041C00042E803134BB1016851E8031F026821F074
:1041D000100142E80313002BDAD1816B0446084634
:1041E000FCF7F2FDA18D2046C28D891A89B202B07A
:1041F000BDE8B040FFF7CABE036C43F0010303649F
:10420000530706D5BEF1000F03D0036C43F0020341
:104210000364930706D5BEF1000F03D0036C43F08F
:1042200004030364BCF1000F06D55EEA050303D066
:10423000036C43F008030364036C002B3FF4E0AE0F
:10424000920605D525B1044601F0D8FE2168204626
:104250004969026C01F0400102F00802891800F07F
:10426000B98000BF016851E8031F026821F4907112
:1042700042E80313BBB3016851E8031F026821F44D
:10428000907142E8031373B3016851E8031F026899
:1042900021F4907142E803132BB3016851E8031F26
:1042A000026821F4907142E80313002BDAD11AE07E
:1042B000016851E8051F026821F0010142E8051379
:1042C000DBB1016851E8051F026821F0010142E8F5
:1042D000051393B1016851E8051F026821F001013F
:1042E00042E805134BB1016851E8051F026821F04F
:1042F000010142E80513002BDAD1016B012924D119
:10430000016851E8031F026821F0100142E803131D
:10431000DBB1016851E8031F026821F0100142E897
:10432000031393B1016851E8031F026821F01001E3
:1043300042E803134BB1016851E8031F026821F002
:10434000100142E80313002BDAD1202180F83E103F
:104350000021016301684969490640F1C180016893
:1043600051E8051F026821F0400142E80513DBB166
:10437000016851E8051F026821F0400142E8051379
:1043800093B1016851E8051F026821F0400142E83D
:1043900005134BB1016851E8051F026821F0400187
:1043A00042E80513002BDAD1816B002900F09880D8
:1043B00045F6F172C0F60002044608460A65FCF7AD
:1043C0004BFD00283FF41CAEA06B016D02B0BDE8B0
:1043D000B04008470446FFF7DBFD0020206402B030
:1043E000B0BD00BF891A00BF026852E8032F0368FE
:1043F00022F4907243E80325BDB3026852E8032F0C
:10440000036822F4907243E8032575B3026852E80A
:10441000032F036822F4907243E803252DB302684A
:1044200052E8032F036822F4907243E80325002D1D
:10443000DAD11AE0026852E8052F036822F001027F
:1044400043E80525DDB1026852E8052F036822F034
:10445000010243E8052595B1026852E8052F03687B
:1044600022F0010243E805254DB1026852E8052F0C
:10447000036822F0010243E80525002DDAD120224D
:1044800080F83E2000220263026852E8032F03688E
:1044900022F0100243E80325DDB1026852E8032F41
:1044A000036822F0100243E8032595B1026852E840
:1044B000032F036822F0100243E803254DB1026880
:1044C00052E8032F036822F0100243E80325002D71
:1044D000DAD189B202B0BDE8B040FFF757BD00BFE6
:1044E00002B0BDE8B040FFF753BD00BF026A32F82A
:1044F000023B6FF35F234B60026299E5002804BF23
:104500000120704710B5044690F83D0028B90020FE
:1045100084F83C00204600F021F8242084F83D0077
:104520002068C16821F40051C160204601F0E6FD19
:104530002068016921F490410161416921F02A015B
:104540004161C16841F40051C16000202021206414
:1045500084F83D1084F83E1010BD00002DE9F043B2
:1045600087B0006844F6FF31C4F2000188424FF082
:1045700000010691CDE90411CDE9021146DD41F2B9
:104580000001C4F20101884200F0828045F200017E
:10459000C4F20001884200F0AF8044F60041C4F24A
:1045A0000001884240F02381002043F63001019051
:1045B000C4F202010A6942F400220A610A6902F4A3
:1045C00000220192019A01900A6842F004020A60F6
:1045D000096801F00401019101994FF440610291D1
:1045E0000221CDE90310032005900820069040F633
:1045F0000000C4F2020002A9FCF7E8FD3420052106
:104600000022FCF77FFF3420EFE000BF44F20041BE
:10461000C4F20001884200F0B78044F60001C4F201
:104620000001884240F0E380002043F63001019011
:10463000C4F202010A6942F480220A610A6902F4A2
:1046400080220192019A01900A6842F002020A60F7
:10465000096801F00201019101994FF44061029152
:104660000221CDE90310032005900720069040F6B3
:104670000000C4F20200A0F5806002A9FCF7A6FDCC
:10468000272005210022FCF73DFF2720ADE000BFD9
:10469000002043F630010190C4F202014A6942F061
:1046A00010024A614A6902F010020192019A0190D7
:1046B0000A6842F001020A60096801F001010191F3
:1046C00001994FF4C06102910221CDE9031003204A
:1046D00005900720069040F60000C4F20200A0F505
:1046E000006002A9FCF772FD252005210022FCF7DD
:1046F00009FF252079E000BF002643F6300001962F
:10470000C4F20200016940F6000441F48011016125
:104710000169C4F2020401F480110191019901962A
:10472000016802AD41F00401016001684FF0020828
:1047300001F0040101910199019601684FF003090C
:1047400041F0080101600068082700F008000190AE
:1047500001984FF48050029020462946CDE9038607
:10476000CDF814900697FCF731FD0420CDE902083E
:1047700004F580602946CDE904690697FCF726FD1B
:1047800007B0BDE8F08300BF002043F63001019080
:10479000C4F202010A6942F400320A610A6902F4B1
:1047A00000320192019A01900A6842F008020A6000
:1047B000096801F00801019101996021029102212B
:1047C000CDE90310032005900720069040F6000075
:1047D000C4F2020000F5806002A9FCF7F7FC262075
:1047E00005210022FCF78EFE2620FCF779FE07B09B
:1047F000BDE8F08390F83E30202B0BD100294FF01C
:10480000010318BF002A01D11846704790F83C30C8
:10481000012B03D102231846704700BF0023036316
:10482000816222218285C285036480F83E1002697C
:10483000016880F83C301AB1C86840F48070C860E4
:10484000486940F001004861C86840F02000C86035
:104850001846704770B540F2D405C2F2010504460F
:104860000068696888420BD1AA6C05F13D062846AC
:1048700031469047286831460122FFF7BBFF206888
:104880004FF62854C2F200046168884218BF70BD18
:10489000A26D04F13105204629469047206829463B
:1048A0000122BDE87040FFF7A5BF00002DE9F043ED
:1048B00081B0044690F83D0020280DD10F46002914
:1048C0004FF0010018BF002A02D101B0BDE8F0830B
:1048D00094F83C00012803D1022001B0BDE8F08328
:1048E000012084F83C000020206421201D4684F82B
:1048F0003D001646FCF748FDA684E684A1680646FE
:10490000B1F5805F03D12069002800F00D81B84621
:104910000027002084F83C00E18C2068002900F08A
:104920008F8005F101090CE0B8F1000F28D018F8CC
:10493000011B4160E18C0139E184E18C002900F028
:104940007F8001680906EFD4B9F1000F0AD0FDB1EC
:10495000FCF71AFD801BA8421AD8206801680906D6
:10496000F6D5E1E701680906DED4016809065CBFF7
:1049700001685FEA0161D7D401680906F2D5D3E77F
:1049800037F8021B4FF000086FF35F21D1E700BF3B
:10499000206850E8030F216820F4D07041E803023A
:1049A000BAB3206850E8030F216820F4D07041E8C2
:1049B000030272B3206850E8030F216820F4D0701E
:1049C00041E803022AB3206850E8030F216820F46D
:1049D000D07041E80302002ADAD11AE0206850E8DA
:1049E000050F216820F0010041E80502DAB12068D6
:1049F00050E8050F216820F0010041E8050292B15E
:104A0000206850E8050F216820F0010041E8050208
:104A10004AB1206850E8050F216820F0010041E804
:104A20000502002ADAD1202084F83D0084F83E00F7
:104A3000002084F83C00032001B0BDE8F08300BFF3
:104A4000016849060FD4F5B1691C17D10168490600
:104A500009D4016849065CBF01685FEA416102D47C
:104A600001684906F2D5202084F83D00002001B0FD
:104A7000BDE8F083206800684006F4D4FCF784FCAD
:104A8000801BA842F6D9206850E8030F216820F463
:104A9000D07041E80302E2B3206850E8030F2168B8
:104AA00020F4D07041E803029AB3206850E8030F65
:104AB000216820F4D07041E8030252B3206850E826
:104AC000030F216820F4D07041E80302002ADAD1F4
:104AD0001FE000BF206850E8050F216820F00100AA
:104AE00041E80502002A9ED0206850E8050F2168A1
:104AF00020F0010041E80502002A94D0206850E827
:104B0000050F216820F0010041E80502002A3FF46A
:104B10008AAF206850E8050F216820F0010041E8C5
:104B20000502002AD6D17EE74FF00008F1E600002A
:104B30007047000010B5044649F225400B46C0F608
:104B400000006063C4E9003204F13D01184601220F
:104B5000FFF750FE0020C4E90200C4E90400A06190
:104B600040F28120C2F20000A06349F22D40C0F65D
:104B7000000049F2FD3148F6C96204F14003C0F675
:104B80000001C0F6000207C310BD0000FEE70000F0
:104B90000A46002918BF0122D0F8A430B0F8A810A6
:104BA0001846FCF7EBBB00009FED878A40F6883083
:104BB0004EF274794EF2A07A4EF6A4074EF6D00467
:104BC00042F29C2540F6702BC2F201009FED7F9AC5
:104BD0009FED7FDAC2F20009C2F2000AC2F20007BA
:104BE000C2F20004C2F200050026C2F2010BB1EECF
:104BF0000CBAB9EE0CCA00F50C78B0EE48AA24E065
:104C0000F0EE4A0AB0EE491A00F01CFF99ED051AC1
:104C10003DEE402A30EE011A89ED051A9AED051A8B
:104C200097ED053A32EE011A8AED051A32EE031AB3
:104C300094ED052A87ED051A30EE021AB0EE40AA6F
:104C400084ED051A012005F0F5F8D9F81000DAF81E
:104C500010103A6908448118226928681144012813
:104C6000E9602DD104F018F8E86869680028024668
:104C700048BF42428A4222DD012842F22470285C69
:104C80004FF00001B0FA80F0B8BF01214209A868D6
:104C900011432A181175DBF8041042F2057305EB75
:104CA0008002984242F22873EE6026613E61CAF8A3
:104CB0001060C9F81060D150DCBF0130A8602868CE
:104CC00003280FD1A868042102282960C5E90266DB
:104CD000286126613E61CAF81060C9F81060B1DB36
:104CE00005E000BF04282FD1296901292CDDA8681F
:104CF00042F224712844695C007DB0EE4C0A002920
:104D000008BFB0EE4B0A002808BFB0EE4B0A05F012
:104D100081FFE868002848BF40426968884227DD73
:104D2000A8682969814227DD05EB800142F22872DB
:104D30001144D1ED000A42F205718842CBED040A1C
:104D4000DCBF0130A86027E005287FF47BAFB0EE20
:104D5000480A05F05FFF40F68830C2F20100D0F843
:104D60009C129BED010ADBED040A4046884747E7A9
:104D7000DBED040A17E000BF0520B0EE480A28600A
:104D800005F048FFA86842F2247105EB8000084452
:104D9000D0ED000ACBED040AEE6026613E61CAF850
:104DA0001060C9F8106040F68830C2F20100D0F8F7
:104DB0009C129BED010A40468847B5EE400AF1EE91
:104DC00010FA7FF41DAF21E700000000CDCCCC3EEF
:104DD000000000800268818810460022FCF7CEBAED
:104DE0000268818810460122FCF7C8BA02688188EF
:104DF0001046FCF7BBBA000010B549F62D5344F637
:104E0000E15C44F6D55E44F6ED54C0F60003C0F60E
:104E1000000CC0F6000EC0F600048360C0F80CC0A1
:104E2000C0F810E044610160828010BDF0B549F621
:104E3000C9549C460346DDF814E049F6D950C0F643
:104E400000044FF4C875C0F6000049F6DD5649F677
:104E50009557C3E9065403F12004C0F60006C0F6D6
:104E60000007C1C419609A80C3F808C06046714643
:104E7000A3F80CE0BDE8F040FEF7F4BF80B582B0C7
:104E80000020019043F63000C4F2020001680022C5
:104E900041F4001101600068052100F40010019048
:104EA00001981120FCF72EFB112002B0BDE88040D4
:104EB000FCF716BB70B59EB04DF2C800C0F60000FE
:104EC000D0E900010022CDE91C011CA8012105F058
:104ED00001F84EF28066C2F200062849306027A031
:104EE000051D15913ECD80690DF1580C8CE83E00F2
:104EF0001B9015A8002104F0ABFF2749706026A085
:104F0000051D0E912ECDD0E905400DF13C0C8CE82D
:104F10002E00CDE913400EA8002104F099FF254989
:104F2000B06024A0051D07912ECDD0E905400DF1FC
:104F3000200C8CE82E00CDE90C4007A8002104F0DD
:104F400087FF2349F06022A0051D00912ECDD0E9F6
:104F500005400DF1040C8CE82E00CDE905406846B3
:104F6000002104F075FF316830610846012104F02A
:104F7000CFFF06F00FFB70611EB070BD0BD10008B3
:104F8000655B0008000000000000000080000000D9
:104F9000000000000000000017D1000821580008A0
:104FA000FDFF000000000000800000000000000085
:104FB0000000000000D10008210D0008FDFF0000E6
:104FC0000000000080000000000000000000000061
:104FD000F0D00008A94B0008FDFF00000000000011
:104FE0008000000000000000000000002DE9F04FEC
:104FF00087B0002443F630000694CDE90444CDE99F
:1050000002440194C4F20200016840F6004841F0F5
:10501000100101600168C4F2020801F01001019161
:10502000019901940168A8F5006741F0040101604D
:105030000168002201F004010191019901940168C5
:10504000442641F080010160016801F08001019176
:1050500001990194016841F001010160016801F0CA
:105060000101019101990194016841F0020101607F
:10507000016801F00201019101990194016841F078
:10508000080101600068442100F0080001900198C7
:105090003846FCF773F908F5806528464FF415414A
:1050A00000224FF4154AFCF769F940464FF48E414F
:1050B00000224FF48E49FCF761F9029602AE4FF0E0
:1050C000010B38463146CDE903B40594FCF77EF870
:1050D0008020CDE90204284631460494FCF776F896
:1050E00028463146CDE902ABCDE90444FCF76EF821
:1050F00040463146CDE9029BCDE90444FCF766F811
:105100004FF4006002904FF48810CDE9030440464C
:105110003146FCF75BF807B0BDE8F08F80B540F290
:105120002C6043F20001C2F20100C4F201014FF40D
:105130008272002380E80E0000F114014FF4007C1D
:105140004FF0100E81E808500A21C0E90333C0E98E
:105150000833C0E90A31FDF7C7FC002808BF80BD4D
:10516000BDE88040FBF72ABE80B540F2846043F67C
:105170000001C2F20100C4F200014FF48272002368
:105180004FF4007C80E80E000A21C0E90333C0E937
:10519000053CC361C0E90833C0E90A31FDF7A4FC4E
:1051A000002808BF80BDBDE88040FBF707BE0000B7
:1051B00010B596B040F2DC6000220021C2F201007E
:1051C000C4F20102032340F2E7341591CDE9131133
:1051D0001191CDE90F11CDE90D11CDE90B11CDE9FB
:1051E0000911CDE90711CDE90511CDE90311CDE98B
:1051F0000111C0E90023C0E90214C0E90411816172
:10520000FEF77EF8002818BFFBF7D8FD4FF480505A
:10521000129040F2DC60C2F2010012A9FEF764F9BC
:10522000002818BFFBF7CAFD40F2DC60C2F20100A3
:10523000FEF7E6FD002818BFFBF7C0FD40F2DC607A
:105240000024C2F2010010A9CDE91044FDF7FAFFD5
:10525000002818BFFBF7B2FD6020CDE9090440F239
:10526000DC60C2F2010009A90022CDE90B44CDE9BE
:105270000D440F94FEF7B4FC002818BFFBF79EFD09
:1052800040F2DC60C2F2010009A90422FEF7A8FC8A
:10529000002818BFFBF792FD40F2DC60C2F201006B
:1052A00009A90822FEF79CFC002818BFFBF786FD21
:1052B00040F2DC60C2F2010009A90C22FEF790FC6A
:1052C000002818BFFBF77AFD00200590CDE9030008
:1052D000CDE901004FF40051089040F2DC600691E6
:1052E000C2F2010001A9FDF787FF002818BFFBF7F4
:1052F00065FD40F2DC60C2F20100FEF7EBFB16B088
:1053000010BD000010B58EB040F224700021C2F232
:1053100001004FF0804269230D91CDE90B110991F5
:10532000CDE90711CDE90511CDE90311CDE9011151
:10533000C0E90021C0E9021301618161FDF7E0FFCE
:10534000002818BFFBF73AFD4FF480500A9040F256
:105350002470C2F201000AA9FEF7C6F8002818BF9F
:10536000FBF72CFD40F22470C2F20100FEF748FD6D
:10537000002818BFFBF722FD40F224700024C2F27F
:10538000010008A9CDE90844FDF75CFF002818BF1B
:10539000FBF714FD6020CDE9010440F22470C2F255
:1053A000010001A9002203940594FEF719FC0028CE
:1053B00018BFFBF703FD40F22470C2F2010001A9FF
:1053C0000422FEF70DFC002818BFFBF7F7FC40F2A3
:1053D0002470C2F2010001A90822FEF701FC002896
:1053E00018BFFBF7EBFC40F22470C2F2010001A9E8
:1053F0000C22FEF7F5FB002818BFFBF7DFFC40F29C
:105400002470C2F20100FEF765FB0EB010BD000073
:1054100080B58CB040F26C700021C2F2010040F205
:10542000004201234FF6FF7CCDE90011C4F20002D7
:10543000C0E9021C01618161CDE90331CDE905318B
:10544000CDE90711CDE909310B9103A9C0E900238A
:10545000FEF71AF9002818BFFBF7B0FC40F26C7099
:10546000C2F201006946FDF7EDFE002818BFFBF708
:10547000A5FC0CB080BD000080B58CB040F2B470CB
:105480000021C2F2010040F6000201234FF6FF7C2A
:10549000CDE90011C4F20002C0E9021C0161816182
:1054A000CDE90331CDE90531CDE90711CDE9093168
:1054B0000B9103A9C0E90023FEF7E6F8002818BF06
:1054C000FBF77CFC40F2B470C2F201006946FDF7C4
:1054D000B9FE002818BFFBF771FC0CB080BD0000BE
:1054E00080B58CB040F2FC700021C2F2010040F6A1
:1054F000004201234FF6FF7CCDE90011C4F2000207
:10550000C0E9021C01618161CDE90331CDE90531BA
:10551000CDE90711CDE909310B9103A9C0E90023B9
:10552000FEF7B2F8002818BFFBF748FC40F2FC7009
:10553000C2F201006946FDF785FE002818BFFBF79F
:105540003DFC0CB080BD000010B58CB040F68C0066
:1055500040F20041C2F20100C4F201010024012224
:105560004FF6FF7380E8160003A9CDE90044C0E9B7
:105570000334C0E90544CDE90324CDE90524CDE990
:105580000744CDE909240B94FEF77EF8002818BFE4
:10559000FBF714FC40F68C00C2F201006946CDE92D
:1055A0000044FDF74FFE002818BFFBF707FC0CB0C6
:1055B00010BD000080B58CB040F6D40044F200026B
:1055C0000021C2F20100C4F2010240F28F6340F2F6
:1055D000E73C0B91CDE909110791CDE90511CDE922
:1055E0000311CDE90111C0E90023C0E9021C0161EA
:1055F0008161FDF785FE002818BFFBF7DFFB4FF444
:105600008050089040F6D400C2F2010008A9FDF7CE
:105610006BFF002818BFFBF7D1FB40F6D400C2F2A5
:105620000100FEF7EDFB002818BFFBF7C7FB602069
:1056300001900020CDE90200059040F6D400C2F2AE
:10564000010001A90022FEF7CBFA002818BFFBF7E2
:10565000B5FB40F6D400C2F2010001A90422FEF716
:10566000BFFA002818BFFBF7A9FB40F6D400C2F22E
:105670000100FEF72FFA0CB080BD000080B540F6A7
:10568000E81044F60041C2F20100C4F20001002318
:105690004FF00C0C4FF4E13280E80E00C0E9033308
:1056A000C0E905C3C361FEF729FF002808BF80BD1C
:1056B000BDE88040FBF782BB80B540F62C2045F268
:1056C0000001C2F20100C4F2000100234FF00C0CF3
:1056D0004FF4E13280E80E00C0E90333C0E905C3AE
:1056E000C361FEF70BFF002808BF80BDBDE8804006
:1056F000FBF764BB80B540F61C1041F20001C2F21A
:105700000100C4F2010100234FF00C0C4FF4E13210
:1057100080E80E00C0E90333C0E905C3C361FEF7AA
:10572000EDFE002808BF80BDBDE88040FBF746BB0A
:1057300080B540F6601044F20041C2F20100C4F2AC
:10574000000100234FF00C0C4FF4E13280E80E0012
:10575000C0E90333C0E905C3C361FEF7CFFE0028EB
:1057600008BF80BDBDE88040FBF728BB80B540F690
:10577000A41044F60001C2F20100C4F200010023AB
:105780004FF00C0C4FF4E13280E80E00C0E9033317
:10579000C0E905C3C361FEF7B1FE002808BF80BDA4
:1057A000BDE88040FBF70ABB80B54FF6985040F249
:1057B0000C01C2F20000C2F20001002201F096F9D1
:1057C000002818BFFBF7FAFA4FF6985040F22C0168
:1057D000C2F20000C2F2000101F0EEFB002818BF87
:1057E000FBF7ECFA4FF6985040F2C801C2F2000005
:1057F000C2F2000100F0B2FE002818BFFBF7DEFA8B
:105800004FF69850C2F2000001F000FC002808BFDB
:1058100080BDBDE88040FBF7D1BA0000FEE7000084
:1058200082B00020002505F0D7FD50A007F03AFC1B
:105830004EF27470C2F200001430019040F67020F5
:10584000C2F20100061D00F110074EF2A070C2F274
:10585000000000F114094EF6A400C2F2000000F1AD
:10586000140A4EF6D0004EF600189FED44EA9FED64
:1058700044FA44F6E4349FED439A9FED43AA9FED2A
:1058800043BAC2F200009FED42DAC2F20008B7EE5E
:10589000008AC2F20104BFEE00CA00F1140B1CE042
:1058A0004EF27470C2F2000045614EF2A070C2F276
:1058B000000045614EF6A40040F67021C2F20000DF
:1058C000C2F20101456148684EF6D002C2F2000200
:1058D00055610861012004F0ADFA98ED000A30EE40
:1058E000080AB4EE4E0AF1EE10FAC8BFB0EE4F0A45
:1058F00088ED000A02F0B0FE94F847000128CFD1ED
:10590000019831463A462346B0EE490AF0EE4A0A7B
:10591000B0EE481A05F090F9484631463A4623461B
:10592000B0EE490AF0EE4B0AB0EE4C1A05F084F9DD
:10593000504631463A462346B0EE490AF0EE4B0A4D
:10594000B0EE4C1A05F078F9584631463A462346EF
:10595000B0EE490AF0EE4A0AB0EE481A05F06CF9CA
:105960002046B0EE4D0A05F0DDF9B3E76D6F746FB8
:10597000725F696E69745F6F6B0D00000000FA441E
:1059800000000000CDCCCCBEAE47E1BDAE47E13D4E
:10599000AE47613FFEE7000040F22010C2F2010076
:1059A000FBF792BF10B54AF2B11C4AF2C91E49F684
:1059B0007D74C0F6000CC0F6000EC0F600048165D0
:1059C000C2650366C0F864C0C0F868E0C46680ECD5
:1059D000030AC0ED141A80ED152A10BD0000000066
:1059E000EFF30980BFF36F8F154B1A681EF0100F8D
:1059F00008BF20ED108A20E9F04F10602DE9090062
:105A00004FF0500080F31188BFF34F8FBFF36F8FBB
:105A100005F088FD4FF0000080F31188BDE8090013
:105A200019680868B0E8F04F1EF0100F08BFB0EC1E
:105A3000108A80F30988BFF36F8F704700BF00BFE3
:105A400098E60020B7EE002A32EE412A22EE202A04
:105A500020EE010A30EE020A704700002DE9F04105
:105A600082B01E4690460D460446FBF78DFC301A68
:105A700000EB0807FBF788FC40F22801C2F20001A6
:105A80000968C1F3CB317943019121688A682A40C2
:105A9000AA4227D1064618F101001FD0FBF774FC7B
:105AA000801BB84222D2019801990028A1F101017E
:105AB00001912168896808BF074601EA0500A842EC
:105AC000ECD00FE088682840A8420BD188682840B5
:105AD000A84207D188682840A84203D18868284096
